{
  "contractName": "DEX",
  "abi": [
    {
      "inputs": [],
      "stateMutability": "nonpayable",
      "type": "constructor"
    },
    {
      "anonymous": false,
      "inputs": [
        {
          "indexed": false,
          "internalType": "uint256",
          "name": "amount",
          "type": "uint256"
        }
      ],
      "name": "Bought",
      "type": "event"
    },
    {
      "anonymous": false,
      "inputs": [
        {
          "indexed": false,
          "internalType": "uint256",
          "name": "amount",
          "type": "uint256"
        }
      ],
      "name": "Sold",
      "type": "event"
    },
    {
      "inputs": [],
      "name": "token",
      "outputs": [
        {
          "internalType": "contract IERC20",
          "name": "",
          "type": "address"
        }
      ],
      "stateMutability": "view",
      "type": "function",
      "constant": true
    },
    {
      "inputs": [],
      "name": "balanceOf",
      "outputs": [
        {
          "internalType": "uint256",
          "name": "",
          "type": "uint256"
        }
      ],
      "stateMutability": "view",
      "type": "function",
      "constant": true
    },
    {
      "inputs": [],
      "name": "buy",
      "outputs": [],
      "stateMutability": "payable",
      "type": "function",
      "payable": true
    },
    {
      "inputs": [
        {
          "internalType": "uint256",
          "name": "amount",
          "type": "uint256"
        }
      ],
      "name": "sell",
      "outputs": [],
      "stateMutability": "nonpayable",
      "type": "function"
    }
  ],
  "bytecode": "0x608060405234801561001057600080fd5b5060405161001d9061007e565b604051809103906000f080158015610039573d6000803e3d6000fd5b506000806101000a81548173ffffffffffffffffffffffffffffffffffffffff021916908373ffffffffffffffffffffffffffffffffffffffff16021790555061008b565b610e6e80610b4f83390190565b610ab58061009a6000396000f3fe60806040526004361061003f5760003560e01c8063722713f714610044578063a6f2ae3a1461006f578063e4849b3214610079578063fc0c546a146100a2575b600080fd5b34801561005057600080fd5b506100596100cd565b60405161006691906108ea565b60405180910390f35b61007761017e565b005b34801561008557600080fd5b506100a0600480360381019061009b9190610698565b6103a0565b005b3480156100ae57600080fd5b506100b7610608565b6040516100c4919061084f565b60405180910390f35b60008060009054906101000a900473ffffffffffffffffffffffffffffffffffffffff1673ffffffffffffffffffffffffffffffffffffffff166370a08231306040518263ffffffff1660e01b815260040161012991906107ab565b60206040518083038186803b15801561014157600080fd5b505afa158015610155573d6000803e3d6000fd5b505050506040513d601f19601f8201168201806040525081019061017991906106c5565b905090565b600034905060008060009054906101000a900473ffffffffffffffffffffffffffffffffffffffff1673ffffffffffffffffffffffffffffffffffffffff166370a08231306040518263ffffffff1660e01b81526004016101df91906107ab565b60206040518083038186803b1580156101f757600080fd5b505afa15801561020b573d6000803e3d6000fd5b505050506040513d601f19601f8201168201806040525081019061022f91906106c5565b905081811015610274576040517f08c379a000000000000000000000000000000000000000000000000000000000815260040161026b906108aa565b60405180910390fd5b600082116102b7576040517f08c379a00000000000000000000000000000000000000000000000000000000081526004016102ae906108ca565b60405180910390fd5b60008054906101000a900473ffffffffffffffffffffffffffffffffffffffff1673ffffffffffffffffffffffffffffffffffffffff1663a9059cbb33846040518363ffffffff1660e01b8152600401610312929190610826565b602060405180830381600087803b15801561032c57600080fd5b505af1158015610340573d6000803e3d6000fd5b505050506040513d601f19601f82011682018060405250810190610364919061066b565b507f4e08ba899977cf7d4c2964bce71c6b9a7ef76ee5166a4c1249a1e08016e33ef18260405161039491906108ea565b60405180910390a15050565b600081116103e3576040517f08c379a00000000000000000000000000000000000000000000000000000000081526004016103da9061086a565b60405180910390fd5b60008060009054906101000a900473ffffffffffffffffffffffffffffffffffffffff1673ffffffffffffffffffffffffffffffffffffffff1663dd62ed3e33306040518363ffffffff1660e01b81526004016104419291906107c6565b60206040518083038186803b15801561045957600080fd5b505afa15801561046d573d6000803e3d6000fd5b505050506040513d601f19601f8201168201806040525081019061049191906106c5565b9050818110156104d6576040517f08c379a00000000000000000000000000000000000000000000000000000000081526004016104cd9061088a565b60405180910390fd5b60008054906101000a900473ffffffffffffffffffffffffffffffffffffffff1673ffffffffffffffffffffffffffffffffffffffff166323b872dd3330856040518463ffffffff1660e01b8152600401610533939291906107ef565b602060405180830381600087803b15801561054d57600080fd5b505af1158015610561573d6000803e3d6000fd5b505050506040513d601f19601f82011682018060405250810190610585919061066b565b503373ffffffffffffffffffffffffffffffffffffffff166108fc839081150290604051600060405180830381858888f193505050501580156105cc573d6000803e3d6000fd5b507f92f64ca637d023f354075a4be751b169c1a8a9ccb6d33cdd0cb3520543995727826040516105fc91906108ea565b60405180910390a15050565b60008054906101000a900473ffffffffffffffffffffffffffffffffffffffff1681565b60008151905061063b81610a51565b92915050565b60008135905061065081610a68565b92915050565b60008151905061066581610a68565b92915050565b60006020828403121561068157610680610982565b5b600061068f8482850161062c565b91505092915050565b6000602082840312156106ae576106ad610982565b5b60006106bc84828501610641565b91505092915050565b6000602082840312156106db576106da610982565b5b60006106e984828501610656565b91505092915050565b6106fb81610916565b82525050565b61070a8161095e565b82525050565b600061071d602583610905565b915061072882610987565b604082019050919050565b6000610740601983610905565b915061074b826109d6565b602082019050919050565b6000610763601b83610905565b915061076e826109ff565b602082019050919050565b6000610786601b83610905565b915061079182610a28565b602082019050919050565b6107a581610954565b82525050565b60006020820190506107c060008301846106f2565b92915050565b60006040820190506107db60008301856106f2565b6107e860208301846106f2565b9392505050565b600060608201905061080460008301866106f2565b61081160208301856106f2565b61081e604083018461079c565b949350505050565b600060408201905061083b60008301856106f2565b610848602083018461079c565b9392505050565b60006020820190506108646000830184610701565b92915050565b6000602082019050818103600083015261088381610710565b9050919050565b600060208201905081810360008301526108a381610733565b9050919050565b600060208201905081810360008301526108c381610756565b9050919050565b600060208201905081810360008301526108e381610779565b9050919050565b60006020820190506108ff600083018461079c565b92915050565b600082825260208201905092915050565b600061092182610934565b9050919050565b60008115159050919050565b600073ffffffffffffffffffffffffffffffffffffffff82169050919050565b6000819050919050565b600061096982610970565b9050919050565b600061097b82610934565b9050919050565b600080fd5b7f596f75206e65656420746f2073656c6c206174206c6561737420736f6d65207460008201527f6f6b656e73000000000000000000000000000000000000000000000000000000602082015250565b7f436865636b2074686520746f6b656e20616c6c6f77616e636500000000000000600082015250565b7f4e6f7420456e6f75676820546f6b656e7320617661696c61626c650000000000600082015250565b7f596f75206e65656420746f2073656e6420736f6d652065746865720000000000600082015250565b610a5a81610928565b8114610a6557600080fd5b50565b610a7181610954565b8114610a7c57600080fd5b5056fea26469706673582212208acd5541d5d6fe6d5ec6e816d875be9b0d4bbc9e2ce8ba06e2aae4e33883c41264736f6c63430008060033608060405269d3c21bcecceda100000060025534801561001e57600080fd5b506002546000803373ffffffffffffffffffffffffffffffffffffffff1673ffffffffffffffffffffffffffffffffffffffff16815260200190815260200160002081905550610dfb806100736000396000f3fe608060405234801561001057600080fd5b50600436106100935760003560e01c8063313ce56711610066578063313ce5671461013457806370a082311461015257806395d89b4114610182578063a9059cbb146101a0578063dd62ed3e146101d057610093565b806306fdde0314610098578063095ea7b3146100b657806318160ddd146100e657806323b872dd14610104575b600080fd5b6100a0610200565b6040516100ad9190610b9d565b60405180910390f35b6100d060048036038101906100cb9190610adc565b610239565b6040516100dd9190610b82565b60405180910390f35b6100ee61032b565b6040516100fb9190610bbf565b60405180910390f35b61011e60048036038101906101199190610a89565b610335565b60405161012b9190610b82565b60405180910390f35b61013c6106b0565b6040516101499190610bda565b60405180910390f35b61016c60048036038101906101679190610a1c565b6106b5565b6040516101799190610bbf565b60405180910390f35b61018a6106fd565b6040516101979190610b9d565b60405180910390f35b6101ba60048036038101906101b59190610adc565b610736565b6040516101c79190610b82565b60405180910390f35b6101ea60048036038101906101e59190610a49565b610918565b6040516101f79190610bbf565b60405180910390f35b6040518060400160405280600981526020017f557a616972436f696e000000000000000000000000000000000000000000000081525081565b600081600160003373ffffffffffffffffffffffffffffffffffffffff1673ffffffffffffffffffffffffffffffffffffffff16815260200190815260200160002060008573ffffffffffffffffffffffffffffffffffffffff1673ffffffffffffffffffffffffffffffffffffffff168152602001908152602001600020819055508273ffffffffffffffffffffffffffffffffffffffff163373ffffffffffffffffffffffffffffffffffffffff167f8c5be1e5ebec7d5bd14f71427d1e84f3dd0314c0f7b2291e5b200ac8c7c3b925846040516103199190610bbf565b60405180910390a36001905092915050565b6000600254905090565b60008060008573ffffffffffffffffffffffffffffffffffffffff1673ffffffffffffffffffffffffffffffffffffffff1681526020019081526020016000205482111561038257600080fd5b600160008573ffffffffffffffffffffffffffffffffffffffff1673ffffffffffffffffffffffffffffffffffffffff16815260200190815260200160002060003373ffffffffffffffffffffffffffffffffffffffff1673ffffffffffffffffffffffffffffffffffffffff1681526020019081526020016000205482111561040b57600080fd5b61045c826000808773ffffffffffffffffffffffffffffffffffffffff1673ffffffffffffffffffffffffffffffffffffffff1681526020019081526020016000205461099f90919063ffffffff16565b6000808673ffffffffffffffffffffffffffffffffffffffff1673ffffffffffffffffffffffffffffffffffffffff1681526020019081526020016000208190555061052d82600160008773ffffffffffffffffffffffffffffffffffffffff1673ffffffffffffffffffffffffffffffffffffffff16815260200190815260200160002060003373ffffffffffffffffffffffffffffffffffffffff1673ffffffffffffffffffffffffffffffffffffffff1681526020019081526020016000205461099f90919063ffffffff16565b600160008673ffffffffffffffffffffffffffffffffffffffff1673ffffffffffffffffffffffffffffffffffffffff16815260200190815260200160002060003373ffffffffffffffffffffffffffffffffffffffff1673ffffffffffffffffffffffffffffffffffffffff168152602001908152602001600020819055506105fe826000808673ffffffffffffffffffffffffffffffffffffffff1673ffffffffffffffffffffffffffffffffffffffff168152602001908152602001600020546109c690919063ffffffff16565b6000808573ffffffffffffffffffffffffffffffffffffffff1673ffffffffffffffffffffffffffffffffffffffff168152602001908152602001600020819055508273ffffffffffffffffffffffffffffffffffffffff168473ffffffffffffffffffffffffffffffffffffffff167fddf252ad1be2c89b69c2b068fc378daa952ba7f163c4a11628f55a4df523b3ef8460405161069d9190610bbf565b60405180910390a3600190509392505050565b600081565b60008060008373ffffffffffffffffffffffffffffffffffffffff1673ffffffffffffffffffffffffffffffffffffffff168152602001908152602001600020549050919050565b6040518060400160405280600381526020017f555a43000000000000000000000000000000000000000000000000000000000081525081565b60008060003373ffffffffffffffffffffffffffffffffffffffff1673ffffffffffffffffffffffffffffffffffffffff1681526020019081526020016000205482111561078357600080fd5b6107d4826000803373ffffffffffffffffffffffffffffffffffffffff1673ffffffffffffffffffffffffffffffffffffffff1681526020019081526020016000205461099f90919063ffffffff16565b6000803373ffffffffffffffffffffffffffffffffffffffff1673ffffffffffffffffffffffffffffffffffffffff16815260200190815260200160002081905550610867826000808673ffffffffffffffffffffffffffffffffffffffff1673ffffffffffffffffffffffffffffffffffffffff168152602001908152602001600020546109c690919063ffffffff16565b6000808573ffffffffffffffffffffffffffffffffffffffff1673ffffffffffffffffffffffffffffffffffffffff168152602001908152602001600020819055508273ffffffffffffffffffffffffffffffffffffffff163373ffffffffffffffffffffffffffffffffffffffff167fddf252ad1be2c89b69c2b068fc378daa952ba7f163c4a11628f55a4df523b3ef846040516109069190610bbf565b60405180910390a36001905092915050565b6000600160008473ffffffffffffffffffffffffffffffffffffffff1673ffffffffffffffffffffffffffffffffffffffff16815260200190815260200160002060008373ffffffffffffffffffffffffffffffffffffffff1673ffffffffffffffffffffffffffffffffffffffff16815260200190815260200160002054905092915050565b6000828211156109b2576109b1610d23565b5b81836109be9190610c67565b905092915050565b60008082846109d59190610c11565b9050838110156109e8576109e7610d23565b5b8091505092915050565b600081359050610a0181610d97565b92915050565b600081359050610a1681610dae565b92915050565b600060208284031215610a3257610a31610d81565b5b6000610a40848285016109f2565b91505092915050565b60008060408385031215610a6057610a5f610d81565b5b6000610a6e858286016109f2565b9250506020610a7f858286016109f2565b9150509250929050565b600080600060608486031215610aa257610aa1610d81565b5b6000610ab0868287016109f2565b9350506020610ac1868287016109f2565b9250506040610ad286828701610a07565b9150509250925092565b60008060408385031215610af357610af2610d81565b5b6000610b01858286016109f2565b9250506020610b1285828601610a07565b9150509250929050565b610b2581610cad565b82525050565b6000610b3682610bf5565b610b408185610c00565b9350610b50818560208601610cf0565b610b5981610d86565b840191505092915050565b610b6d81610cd9565b82525050565b610b7c81610ce3565b82525050565b6000602082019050610b976000830184610b1c565b92915050565b60006020820190508181036000830152610bb78184610b2b565b905092915050565b6000602082019050610bd46000830184610b64565b92915050565b6000602082019050610bef6000830184610b73565b92915050565b600081519050919050565b600082825260208201905092915050565b6000610c1c82610cd9565b9150610c2783610cd9565b9250827fffffffffffffffffffffffffffffffffffffffffffffffffffffffffffffffff03821115610c5c57610c5b610d52565b5b828201905092915050565b6000610c7282610cd9565b9150610c7d83610cd9565b925082821015610c9057610c8f610d52565b5b828203905092915050565b6000610ca682610cb9565b9050919050565b60008115159050919050565b600073ffffffffffffffffffffffffffffffffffffffff82169050919050565b6000819050919050565b600060ff82169050919050565b60005b83811015610d0e578082015181840152602081019050610cf3565b83811115610d1d576000848401525b50505050565b7f4e487b7100000000000000000000000000000000000000000000000000000000600052600160045260246000fd5b7f4e487b7100000000000000000000000000000000000000000000000000000000600052601160045260246000fd5b600080fd5b6000601f19601f8301169050919050565b610da081610c9b565b8114610dab57600080fd5b50565b610db781610cd9565b8114610dc257600080fd5b5056fea2646970667358221220bff14efa953a7b3bed031c4176a812e33a1119565b69d84594581510b6c5ad4664736f6c63430008060033",
  "immutableReferences": {},
  "source": "// SPDX-License-Identifier: MIT\npragma solidity ^0.8.6;\n\nimport \"@openzeppelin/contracts/token/ERC20/ERC20.sol\";\n\nlibrary SafeMath {\n    function sub(uint256 a, uint256 b) internal pure returns (uint256) {\n      assert(b <= a);\n      return a - b;\n    }\n\n    function add(uint256 a, uint256 b) internal pure returns (uint256) {\n      uint256 c = a + b;\n      assert(c >= a);\n      return c;\n    }\n}\n\ncontract UzairCoin is IERC20 {\n\n    string public constant name = \"UzairCoin\";\n    string public constant symbol = \"UZC\";\n    uint8 public constant decimals = 0;\n\n    mapping(address => uint256) balances;\n    mapping(address => mapping (address => uint256)) allowed;\n\n    uint256 totalSupply_ = 1000000000000000000000000;\n\n    using SafeMath for uint256;\n\n    constructor() {\n        balances[msg.sender] = totalSupply_;\n    }\n\n    function totalSupply() public override view returns (uint256) {\n        return totalSupply_;\n    }\n\n    function balanceOf(address tokenOwner) public override view returns (uint256) {\n        return balances[tokenOwner];\n    }\n\n    function transfer(address receiver, uint256 numTokens) public override returns (bool) {\n        require(numTokens <= balances[msg.sender]);\n        balances[msg.sender] = balances[msg.sender].sub(numTokens);\n        balances[receiver] = balances[receiver].add(numTokens);\n        emit Transfer(msg.sender, receiver, numTokens);\n        return true;\n    }\n\n    function approve(address buyer, uint256 numTokens) public override returns (bool) {\n        allowed[msg.sender][buyer] = numTokens;\n        emit Approval(msg.sender, buyer, numTokens);\n        return true;\n    }\n\n    function allowance(address owner, address buyer) public override view returns (uint) {\n        return allowed[owner][buyer];\n    }\n\n    function transferFrom(address owner, address buyer, uint256 numTokens) public override returns (bool) {\n        require(numTokens <= balances[owner]);\n        require(numTokens <= allowed[owner][msg.sender]);\n\n        balances[owner] = balances[owner].sub(numTokens);\n        allowed[owner][msg.sender] = allowed[owner][msg.sender].sub(numTokens);\n        balances[buyer] = balances[buyer].add(numTokens);\n        emit Transfer(owner, buyer, numTokens);\n        return true;\n    }\n\n}\n\n\ncontract DEX {\n\n    IERC20 public token;\n\n    event Bought(uint256 amount);\n    event Sold(uint256 amount);\n\n    constructor() {\n        token = new UzairCoin();\n    }\n\n    function balanceOf() public view returns (uint256) {\n        return token.balanceOf(address(this));\n    }\n\n    function buy () payable public {\n        uint256 amountTobuy = msg.value;\n        uint256 dexBalance = token.balanceOf(address(this));\n        require(dexBalance >= amountTobuy, \"Not Enough Tokens available\");\n        require(amountTobuy > 0, \"You need to send some ether\");\n        token.transfer(msg.sender, amountTobuy);\n        emit Bought(amountTobuy);\n    }\n\n    function sell (uint256 amount) public {\n        require(amount > 0, \"You need to sell at least some tokens\");\n        uint256 allowance = token.allowance(msg.sender, address(this));\n        require(allowance >= amount, \"Check the token allowance\");\n        token.transferFrom(msg.sender, address(this), amount);\n        payable(msg.sender).transfer(amount);\n        emit Sold(amount);\n    }\n}\n\n// contract DEX {\n\n//     IERC20 public token;\n\n//     event Bought(uint256 amount);\n//     event Sold(uint256 amount);\n\n//     constructor() {\n//         token = new UzairCoin();\n//     }\n\n//     function buy () payable public {\n//         uint256 amountTobuy = msg.value;\n//         uint256 dexBalance = token.balanceOf(address(this));\n//         require(dexBalance >= amountTobuy, \"Not Enough Tokens available\");\n//         require(amountTobuy > 0, \"You need to send some ether\");\n//         token.transfer(msg.sender, amountTobuy);\n//         emit Bought(amountTobuy);\n//     }\n\n//     function sell (uint256 amount) public {\n//         require(amount > 0, \"You need to sell at least some tokens\");\n//         uint256 allowance = token.allowance(msg.sender, address(this));\n//         require(allowance >= amount, \"Check the token allowance\");\n//         token.transferFrom(msg.sender, address(this), amount);\n//         payable(msg.sender).transfer(amount);\n//         emit Sold(amount);\n//     }\n\n// }\n\n// import \"@openzeppelin/contracts/token/ERC20/ERC20.sol\";\n\n// contract DEX {\n\n//     IERC20 public token;\n\n//     event Bought(uint256 amount);\n//     event Sold(uint256 amount);\n\n//     constructor(address _token) {\n//         token = IERC20(_token);\n//     }\n\n//     function buy () payable public {\n//         uint256 amountTobuy = msg.value;\n//         uint256 dexBalance = token.balanceOf(address(this));\n//         require(dexBalance >= amountTobuy, \"Not Enough Tokens available\");\n//         require(amountTobuy > 0, \"You need to send some ether\");\n//         token.transfer(msg.sender, amountTobuy);\n//         emit Bought(amountTobuy);\n//     }\n\n//     function sell (uint256 amount) public {\n//         require(amount > 0, \"You need to sell at least some tokens\");\n//         uint256 allowance = token.allowance(msg.sender, address(this));\n//         require(allowance >= amount, \"Check the token allowance\");\n//         token.transferFrom(msg.sender, address(this), amount);\n//         payable(msg.sender).transfer(amount);\n//         emit Sold(amount);\n//     }\n\n\n// }",
  "sourcePath": "/home/uzairbangee/Development/Blockchain/DEX/contracts/UzairCoin.sol",
  "compiler": {
    "name": "solc",
    "version": "0.8.6+commit.11564f7e.Emscripten.clang"
  },
  "schemaVersion": "3.4.3",
  "updatedAt": "2021-09-09T08:22:57.730Z",
  "networkType": "ethereum",
  "devdoc": {
    "kind": "dev",
    "methods": {},
    "version": 1
  },
  "userdoc": {
    "kind": "user",
    "methods": {},
    "version": 1
  }
}